{
  "contractName": "GameToken",
  "abi": [
    {
      "inputs": [
        {
          "internalType": "uint256",
          "name": "_initialSupply",
          "type": "uint256"
        }
      ],
      "payable": false,
      "stateMutability": "nonpayable",
      "type": "constructor"
    },
    {
      "anonymous": false,
      "inputs": [
        {
          "indexed": true,
          "internalType": "address",
          "name": "owner",
          "type": "address"
        },
        {
          "indexed": true,
          "internalType": "address",
          "name": "spender",
          "type": "address"
        },
        {
          "indexed": false,
          "internalType": "uint256",
          "name": "value",
          "type": "uint256"
        }
      ],
      "name": "Approval",
      "type": "event"
    },
    {
      "anonymous": false,
      "inputs": [
        {
          "indexed": true,
          "internalType": "address",
          "name": "from",
          "type": "address"
        },
        {
          "indexed": true,
          "internalType": "address",
          "name": "to",
          "type": "address"
        },
        {
          "indexed": false,
          "internalType": "uint256",
          "name": "value",
          "type": "uint256"
        }
      ],
      "name": "Transfer",
      "type": "event"
    },
    {
      "constant": true,
      "inputs": [
        {
          "internalType": "address",
          "name": "",
          "type": "address"
        },
        {
          "internalType": "address",
          "name": "",
          "type": "address"
        }
      ],
      "name": "allowance",
      "outputs": [
        {
          "internalType": "uint256",
          "name": "",
          "type": "uint256"
        }
      ],
      "payable": false,
      "stateMutability": "view",
      "type": "function"
    },
    {
      "constant": true,
      "inputs": [
        {
          "internalType": "address",
          "name": "",
          "type": "address"
        }
      ],
      "name": "balanceOf",
      "outputs": [
        {
          "internalType": "uint256",
          "name": "",
          "type": "uint256"
        }
      ],
      "payable": false,
      "stateMutability": "view",
      "type": "function"
    },
    {
      "constant": true,
      "inputs": [],
      "name": "decimals",
      "outputs": [
        {
          "internalType": "uint8",
          "name": "",
          "type": "uint8"
        }
      ],
      "payable": false,
      "stateMutability": "view",
      "type": "function"
    },
    {
      "constant": true,
      "inputs": [],
      "name": "exchangeRate",
      "outputs": [
        {
          "internalType": "uint256",
          "name": "",
          "type": "uint256"
        }
      ],
      "payable": false,
      "stateMutability": "view",
      "type": "function"
    },
    {
      "constant": true,
      "inputs": [],
      "name": "name",
      "outputs": [
        {
          "internalType": "string",
          "name": "",
          "type": "string"
        }
      ],
      "payable": false,
      "stateMutability": "view",
      "type": "function"
    },
    {
      "constant": true,
      "inputs": [],
      "name": "owner",
      "outputs": [
        {
          "internalType": "address",
          "name": "",
          "type": "address"
        }
      ],
      "payable": false,
      "stateMutability": "view",
      "type": "function"
    },
    {
      "constant": true,
      "inputs": [],
      "name": "symbol",
      "outputs": [
        {
          "internalType": "string",
          "name": "",
          "type": "string"
        }
      ],
      "payable": false,
      "stateMutability": "view",
      "type": "function"
    },
    {
      "constant": true,
      "inputs": [],
      "name": "totalSupply",
      "outputs": [
        {
          "internalType": "uint256",
          "name": "",
          "type": "uint256"
        }
      ],
      "payable": false,
      "stateMutability": "view",
      "type": "function"
    },
    {
      "constant": false,
      "inputs": [
        {
          "internalType": "address",
          "name": "_to",
          "type": "address"
        },
        {
          "internalType": "uint256",
          "name": "_value",
          "type": "uint256"
        }
      ],
      "name": "transfer",
      "outputs": [
        {
          "internalType": "bool",
          "name": "success",
          "type": "bool"
        }
      ],
      "payable": false,
      "stateMutability": "nonpayable",
      "type": "function"
    },
    {
      "constant": false,
      "inputs": [
        {
          "internalType": "address",
          "name": "_spender",
          "type": "address"
        },
        {
          "internalType": "uint256",
          "name": "_value",
          "type": "uint256"
        }
      ],
      "name": "approve",
      "outputs": [
        {
          "internalType": "bool",
          "name": "success",
          "type": "bool"
        }
      ],
      "payable": false,
      "stateMutability": "nonpayable",
      "type": "function"
    },
    {
      "constant": false,
      "inputs": [
        {
          "internalType": "address",
          "name": "_from",
          "type": "address"
        },
        {
          "internalType": "address",
          "name": "_to",
          "type": "address"
        },
        {
          "internalType": "uint256",
          "name": "_value",
          "type": "uint256"
        }
      ],
      "name": "transferFrom",
      "outputs": [
        {
          "internalType": "bool",
          "name": "success",
          "type": "bool"
        }
      ],
      "payable": false,
      "stateMutability": "nonpayable",
      "type": "function"
    },
    {
      "constant": false,
      "inputs": [],
      "name": "swap",
      "outputs": [],
      "payable": true,
      "stateMutability": "payable",
      "type": "function"
    },
    {
      "constant": false,
      "inputs": [
        {
          "internalType": "uint256",
          "name": "_value",
          "type": "uint256"
        }
      ],
      "name": "fundContract",
      "outputs": [],
      "payable": false,
      "stateMutability": "nonpayable",
      "type": "function"
    }
  ],
  "bytecode": "0x6080604052606460015534801561001557600080fd5b50604051610c24380380610c248339818101604052602081101561003857600080fd5b5051670de0b6b3a764000081026000908155308082526003602090815260408084206064601987020490819055338552818520818703908190558251828152925191959094939092600080516020610c04833981519152929081900390910190a36040805182815290513391600091600080516020610c048339815191529181900360200190a35050600280546001600160a01b0319163317905550610b21806100e36000396000f3fe6080604052600436106100c25760003560e01c80633ba0b9a91161007f5780638da5cb5b116100595780638da5cb5b146102af57806395d89b41146102e0578063a9059cbb146102f5578063dd62ed3e1461032e576100c2565b80633ba0b9a91461025f57806370a08231146102745780638119c065146102a7576100c2565b806306fdde03146100c7578063095ea7b31461015157806318160ddd1461019e57806323b872dd146101c5578063313ce567146102085780633519a2f814610233575b600080fd5b3480156100d357600080fd5b506100dc610369565b6040805160208082528351818301528351919283929083019185019080838360005b838110156101165781810151838201526020016100fe565b50505050905090810190601f1680156101435780820380516001836020036101000a031916815260200191505b509250505060405180910390f35b34801561015d57600080fd5b5061018a6004803603604081101561017457600080fd5b506001600160a01b03813516906020013561038e565b604080519115158252519081900360200190f35b3480156101aa57600080fd5b506101b3610444565b60408051918252519081900360200190f35b3480156101d157600080fd5b5061018a600480360360608110156101e857600080fd5b506001600160a01b0381358116916020810135909116906040013561044a565b34801561021457600080fd5b5061021d61058d565b6040805160ff9092168252519081900360200190f35b34801561023f57600080fd5b5061025d6004803603602081101561025657600080fd5b5035610592565b005b34801561026b57600080fd5b506101b3610725565b34801561028057600080fd5b506101b36004803603602081101561029757600080fd5b50356001600160a01b031661072b565b61025d61073d565b3480156102bb57600080fd5b506102c461089c565b604080516001600160a01b039092168252519081900360200190f35b3480156102ec57600080fd5b506100dc6108ab565b34801561030157600080fd5b5061018a6004803603604081101561031857600080fd5b506001600160a01b0381351690602001356108c9565b34801561033a57600080fd5b506101b36004803603604081101561035157600080fd5b506001600160a01b03813581169160200135166109c2565b6040518060400160405280600981526020016823b0b6b2aa37b5b2b760b91b81525081565b60006001600160a01b0383166103dd576040805162461bcd60e51b815260206004820152600f60248201526e496e76616c6964206164647265737360881b604482015290519081900360640190fd5b3360008181526004602090815260408083206001600160a01b03881680855290835292819020869055805186815290519293927f8c5be1e5ebec7d5bd14f71427d1e84f3dd0314c0f7b2291e5b200ac8c7c3b925929181900390910190a350600192915050565b60005481565b6001600160a01b0383166000908152600360205260408120548211156104a15760405162461bcd60e51b8152600401808060200182810382526025815260200180610a306025913960400191505060405180910390fd5b6001600160a01b0384166000908152600460209081526040808320338452909152902054821115610519576040805162461bcd60e51b815260206004820152601f60248201527f416d6f756e742063616e6e6f742065786365656420616c6c6f77616e63652100604482015290519081900360640190fd5b6001600160a01b0380851660008181526003602090815260408083208054889003905593871680835284832080548801905583835260048252848320338452825291849020869055835186815293519193600080516020610a78833981519152929081900390910190a35060019392505050565b601281565b600254600160a01b900460ff16156105e1576040805162461bcd60e51b815260206004820152600d60248201526c4e6f207265656e7472616e637960981b604482015290519081900360640190fd5b6002805460ff60a01b1916600160a01b1790819055336001600160a01b039091161461063e5760405162461bcd60e51b8152600401808060200182810382526023815260200180610a556023913960400191505060405180910390fd5b6000811161067d5760405162461bcd60e51b8152600401808060200182810382526034815260200180610ab96034913960400191505060405180910390fd5b336000908152600360205260409020548111156106cb5760405162461bcd60e51b81526004018080602001828103825260258152602001806109e06025913960400191505060405180910390fd5b33600081815260036020908152604080832080548690039055308084529281902080548601905580518581529051929392600080516020610a78833981519152929181900390910190a3506002805460ff60a01b19169055565b60015481565b60036020526000908152604090205481565b600254600160a01b900460ff161561078c576040805162461bcd60e51b815260206004820152600d60248201526c4e6f207265656e7472616e637960981b604482015290519081900360640190fd5b6002805460ff60a01b1916600160a01b179055346107db5760405162461bcd60e51b8152600401808060200182810382526021815260200180610a986021913960400191505060405180910390fd5b6000670de0b6b3a76400006001543402816107f257fe5b3060009081526003602052604090205491900491508111156108455760405162461bcd60e51b815260040180806020018281038252602b815260200180610a05602b913960400191505060405180910390fd5b33600081815260036020908152604080832080548601905530808452928190208054869003905580518581529051600080516020610a78833981519152929181900390910190a3506002805460ff60a01b19169055565b6002546001600160a01b031681565b6040518060400160405280600281526020016111d560f21b81525081565b60006001600160a01b038316610918576040805162461bcd60e51b815260206004820152600f60248201526e496e76616c6964206164647265737360881b604482015290519081900360640190fd5b336000908152600360205260409020548211156109665760405162461bcd60e51b8152600401808060200182810382526025815260200180610a306025913960400191505060405180910390fd5b336000818152600360209081526040808320805487900390556001600160a01b0387168084529281902080548701905580518681529051929392600080516020610a78833981519152929181900390910190a350600192915050565b60046020908152600092835260408084209091529082529020548156fe496e73756666696369656e742062616c616e636520746f2066756e6420636f6e7472616374496e73756666696369656e742047616d6520546f6b656e2062616c616e636520696e20436f6e747261637453656e64696e6720616d6f756e74206578636565647320737570706c7920616d6f756e7421596f75206d75737420626520746865206f776e657220746f2073656e642066756e6473ddf252ad1be2c89b69c2b068fc378daa952ba7f163c4a11628f55a4df523b3ef53656e6420457468657220746f207377617020666f722047616d6520546f6b656e546f2066756e642074686520636f6e74726163742c20706c656173652073656e64206d6f7265207468616e203020746f6b656e73a265627a7a72315820892719c034f60580012f666fe8c4faa32f409b070d22ae6e7d638071f536568f64736f6c63430005100032ddf252ad1be2c89b69c2b068fc378daa952ba7f163c4a11628f55a4df523b3ef",
  "source": "//SPDX-License-Identifier: MIT\r\npragma solidity >= 0.5.0 < 0.9.0;\r\n\r\ncontract GameToken {\r\n\r\n    string public constant name = \"GameToken\";\r\n    string public constant symbol = \"GT\";\r\n    uint8 public constant decimals = 18;\r\n    uint256 public totalSupply;\r\n    uint256 public exchangeRate = 100; // 1 Ether = 100 Game Token\r\n\r\n    address public owner;\r\n\r\n    // For noReentrant modifier.\r\n    bool private locked;\r\n\r\n    mapping(address => uint256) public balanceOf;\r\n    mapping(address => mapping(address => uint256)) public allowance;\r\n\r\n    event Transfer(address indexed from, address indexed to, uint256 value);\r\n    event Approval(address indexed owner, address indexed spender, uint256 value);\r\n\r\n    constructor(uint256 _initialSupply) public {\r\n        totalSupply = _initialSupply * 10**18;\r\n\r\n        // Allocate 25% of total supply to contract for swapping\r\n        uint256 contractAllocation = _initialSupply * 25 / 100;\r\n        balanceOf[address(this)] = contractAllocation;\r\n\r\n        // Allocate 75% of total supply to the owner\r\n        uint256 ownerAllocation = _initialSupply - contractAllocation;\r\n        balanceOf[msg.sender] = ownerAllocation;\r\n\r\n        emit Transfer(address(0), address(this), contractAllocation);\r\n        emit Transfer(address(0), msg.sender, ownerAllocation);\r\n\r\n        owner = msg.sender;\r\n    }\r\n\r\n    // Prevent Re-entrancy Attacks.\r\n    modifier noReentrant() {\r\n        require(!locked, \"No reentrancy\");\r\n        locked = true;\r\n        _;\r\n        locked = false;\r\n    }\r\n\r\n    function transfer(address _to, uint256 _value) public returns (bool success) {\r\n        require(_to != address(0), \"Invalid address\");\r\n        require(balanceOf[msg.sender] >= _value, \"Sending amount exceeds supply amount!\");\r\n\r\n        balanceOf[msg.sender] -= _value;\r\n        balanceOf[_to] += _value;\r\n        emit Transfer(msg.sender, _to, _value);\r\n        return true;\r\n    }\r\n\r\n    function approve(address _spender, uint256 _value) public returns (bool success) {\r\n        require(_spender != address(0), \"Invalid address\");\r\n\r\n        allowance[msg.sender][_spender] = _value;\r\n        emit Approval(msg.sender, _spender, _value);\r\n        return true;\r\n    }\r\n\r\n    function transferFrom(address _from, address _to, uint256 _value) public returns (bool success) {\r\n        require(_value <= balanceOf[_from], \"Sending amount exceeds supply amount!\");\r\n        require(_value <= allowance[_from][msg.sender], \"Amount cannot exceed allowance!\");\r\n        balanceOf[_from] -= _value;\r\n        balanceOf[_to] += _value;\r\n        allowance[_from][msg.sender] = _value;\r\n        emit Transfer(_from, _to, _value);\r\n        return true;\r\n    }\r\n\r\n    function swap() public payable noReentrant {\r\n        require(msg.value > 0, \"Send Ether to swap for Game Token\");\r\n\r\n        uint256 transferAmount = (msg.value * exchangeRate) / 1 ether; // GameToken received\r\n        require(balanceOf[address(this)] >= transferAmount, \"Insufficient Game Token balance in Contract\");\r\n\r\n        balanceOf[msg.sender] += transferAmount;\r\n        balanceOf[address(this)] -= transferAmount;\r\n\r\n        emit Transfer(address(this), msg.sender, transferAmount);\r\n    }\r\n\r\n    function fundContract(uint256 _value) public noReentrant {\r\n        require(msg.sender == owner, \"You must be the owner to send funds\");\r\n        require(_value > 0, \"To fund the contract, please send more than 0 tokens\");\r\n        require(balanceOf[msg.sender] >= _value, \"Insufficient balance to fund contract\");\r\n\r\n        balanceOf[msg.sender] -= _value;\r\n        balanceOf[address(this)] += _value;\r\n\r\n        emit Transfer(msg.sender, address(this), _value);\r\n    }\r\n\r\n    // Add Staking Options?\r\n    // Add Transfer Owner?\r\n}",
  "sourcePath": "C:\\Users\\Gessay\\desktop\\token\\contracts\\gameToken.sol",
  "compiler": {
    "name": "solc",
    "version": "0.5.16+commit.9c3226ce.Emscripten.clang"
  },
  "schemaVersion": "3.4.16",
  "updatedAt": "2024-01-28T16:27:44.465Z",
  "devdoc": {
    "methods": {}
  },
  "userdoc": {
    "methods": {}
  }
}