{
  "contractName": "NFT",
  "abi": [
    {
      "inputs": [],
      "payable": false,
      "stateMutability": "nonpayable",
      "type": "constructor"
    },
    {
      "anonymous": false,
      "inputs": [
        {
          "indexed": true,
          "internalType": "address",
          "name": "owner",
          "type": "address"
        },
        {
          "indexed": true,
          "internalType": "address",
          "name": "approved",
          "type": "address"
        },
        {
          "indexed": true,
          "internalType": "uint256",
          "name": "tokenId",
          "type": "uint256"
        }
      ],
      "name": "Approval",
      "type": "event"
    },
    {
      "anonymous": false,
      "inputs": [
        {
          "indexed": true,
          "internalType": "address",
          "name": "from",
          "type": "address"
        },
        {
          "indexed": true,
          "internalType": "address",
          "name": "to",
          "type": "address"
        },
        {
          "indexed": true,
          "internalType": "uint256",
          "name": "tokenId",
          "type": "uint256"
        },
        {
          "indexed": false,
          "internalType": "uint256",
          "name": "tokenRarity",
          "type": "uint256"
        }
      ],
      "name": "Transfer",
      "type": "event"
    },
    {
      "constant": true,
      "inputs": [],
      "name": "contractOwner",
      "outputs": [
        {
          "internalType": "address",
          "name": "",
          "type": "address"
        }
      ],
      "payable": false,
      "stateMutability": "view",
      "type": "function"
    },
    {
      "constant": true,
      "inputs": [
        {
          "internalType": "uint256",
          "name": "",
          "type": "uint256"
        }
      ],
      "name": "nfts",
      "outputs": [
        {
          "internalType": "uint256",
          "name": "id",
          "type": "uint256"
        },
        {
          "internalType": "enum NFT.Rarity",
          "name": "rarity",
          "type": "uint8"
        }
      ],
      "payable": false,
      "stateMutability": "view",
      "type": "function"
    },
    {
      "constant": false,
      "inputs": [
        {
          "internalType": "address",
          "name": "to",
          "type": "address"
        }
      ],
      "name": "mint",
      "outputs": [],
      "payable": true,
      "stateMutability": "payable",
      "type": "function"
    },
    {
      "constant": true,
      "inputs": [],
      "name": "pseudoRandom",
      "outputs": [
        {
          "internalType": "uint256",
          "name": "",
          "type": "uint256"
        }
      ],
      "payable": false,
      "stateMutability": "view",
      "type": "function"
    },
    {
      "constant": false,
      "inputs": [
        {
          "internalType": "address",
          "name": "from",
          "type": "address"
        },
        {
          "internalType": "address",
          "name": "to",
          "type": "address"
        },
        {
          "internalType": "uint256",
          "name": "tokenId",
          "type": "uint256"
        }
      ],
      "name": "transferFrom",
      "outputs": [],
      "payable": false,
      "stateMutability": "nonpayable",
      "type": "function"
    },
    {
      "constant": false,
      "inputs": [
        {
          "internalType": "address",
          "name": "to",
          "type": "address"
        },
        {
          "internalType": "uint256",
          "name": "tokenId",
          "type": "uint256"
        }
      ],
      "name": "approve",
      "outputs": [],
      "payable": false,
      "stateMutability": "nonpayable",
      "type": "function"
    },
    {
      "constant": true,
      "inputs": [
        {
          "internalType": "uint256",
          "name": "tokenId",
          "type": "uint256"
        }
      ],
      "name": "getApproved",
      "outputs": [
        {
          "internalType": "address",
          "name": "",
          "type": "address"
        }
      ],
      "payable": false,
      "stateMutability": "view",
      "type": "function"
    },
    {
      "constant": true,
      "inputs": [
        {
          "internalType": "address",
          "name": "spender",
          "type": "address"
        },
        {
          "internalType": "uint256",
          "name": "tokenId",
          "type": "uint256"
        }
      ],
      "name": "isApprovedOrOwner",
      "outputs": [
        {
          "internalType": "bool",
          "name": "",
          "type": "bool"
        }
      ],
      "payable": false,
      "stateMutability": "view",
      "type": "function"
    },
    {
      "constant": true,
      "inputs": [
        {
          "internalType": "address",
          "name": "owner",
          "type": "address"
        }
      ],
      "name": "balanceOf",
      "outputs": [
        {
          "internalType": "uint256",
          "name": "",
          "type": "uint256"
        }
      ],
      "payable": false,
      "stateMutability": "view",
      "type": "function"
    },
    {
      "constant": true,
      "inputs": [
        {
          "internalType": "uint256",
          "name": "tokenId",
          "type": "uint256"
        }
      ],
      "name": "getNFTData",
      "outputs": [
        {
          "internalType": "uint256",
          "name": "",
          "type": "uint256"
        },
        {
          "internalType": "enum NFT.Rarity",
          "name": "",
          "type": "uint8"
        },
        {
          "internalType": "address",
          "name": "",
          "type": "address"
        }
      ],
      "payable": false,
      "stateMutability": "view",
      "type": "function"
    },
    {
      "constant": true,
      "inputs": [
        {
          "internalType": "enum NFT.Rarity",
          "name": "rarity",
          "type": "uint8"
        }
      ],
      "name": "getNFTsByRarity",
      "outputs": [
        {
          "internalType": "uint256[]",
          "name": "",
          "type": "uint256[]"
        }
      ],
      "payable": false,
      "stateMutability": "view",
      "type": "function"
    }
  ],
  "bytecode": "0x6080604052600060645534801561001557600080fd5b50606580546001600160a01b03191633179055610cd7806100376000396000f3fe60806040526004361061009c5760003560e01c8063265aa62111610064578063265aa62114610247578063430c20811461029c5780635cee4502146102e95780636a6278421461031057806370a0823114610336578063ce606ee0146103695761009c565b8063081812fc146100a1578063095ea7b3146100e75780630ad4c4f4146101225780631d46c2ba1461018757806323b872dd14610204575b600080fd5b3480156100ad57600080fd5b506100cb600480360360208110156100c457600080fd5b503561037e565b604080516001600160a01b039092168252519081900360200190f35b3480156100f357600080fd5b506101206004803603604081101561010a57600080fd5b506001600160a01b0381351690602001356103ed565b005b34801561012e57600080fd5b5061014c6004803603602081101561014557600080fd5b503561049f565b6040518084815260200183600381111561016257fe5b60ff1681526001600160a01b0390921660208301525060408051918290030192509050f35b34801561019357600080fd5b506101b4600480360360208110156101aa57600080fd5b503560ff1661054e565b60408051602080825283518183015283519192839290830191858101910280838360005b838110156101f05781810151838201526020016101d8565b505050509050019250505060405180910390f35b34801561021057600080fd5b506101206004803603606081101561022757600080fd5b506001600160a01b0381358116916020810135909116906040013561066a565b34801561025357600080fd5b506102716004803603602081101561026a57600080fd5b50356107fb565b6040518083815260200182600381111561028757fe5b60ff1681526020019250505060405180910390f35b3480156102a857600080fd5b506102d5600480360360408110156102bf57600080fd5b506001600160a01b03813516906020013561081d565b604080519115158252519081900360200190f35b3480156102f557600080fd5b506102fe6108bb565b60408051918252519081900360200190f35b6101206004803603602081101561032657600080fd5b50356001600160a01b03166108ff565b34801561034257600080fd5b506102fe6004803603602081101561035957600080fd5b50356001600160a01b0316610ac4565b34801561037557600080fd5b506100cb610b27565b6000818152606660205260408120546001600160a01b03166103d15760405162461bcd60e51b815260040180806020018281038252602c815260200180610bf6602c913960400191505060405180910390fd5b506000908152606860205260409020546001600160a01b031690565b6000818152606660205260409020546001600160a01b03163381146104435760405162461bcd60e51b8152600401808060200182810382526027815260200180610c4b6027913960400191505060405180910390fd5b60008281526068602052604080822080546001600160a01b0319166001600160a01b0387811691821790925591518593918516917f8c5be1e5ebec7d5bd14f71427d1e84f3dd0314c0f7b2291e5b200ac8c7c3b92591a4505050565b6000806000600184101580156104b6575060328411155b610507576040805162461bcd60e51b815260206004820152601e60248201527f4e46547320617265206e756d62657265642066726f6d203120746f2035300000604482015290519081900360640190fd5b600080600186036032811061051857fe5b60020201805460008181526066602052604090205460019092015490955060ff1693506001600160a01b03169150509193909250565b604080516032808252610660820190925260609182919060208201610640803883390190505090506000805b60328110156105f35784600381111561058f57fe5b6000826032811061059c57fe5b600202016001015460ff1660038111156105b257fe5b14156105eb57600081603281106105c557fe5b60020201600001548383815181106105d957fe5b60209081029190910101526001909101905b60010161057a565b50606081604051908082528060200260200182016040528015610620578160200160208202803883390190505b50905060005b828110156106615783818151811061063a57fe5b602002602001015182828151811061064e57fe5b6020908102919091010152600101610626565b50949350505050565b610674338261081d565b6106af5760405162461bcd60e51b8152600401808060200182810382526031815260200180610c726031913960400191505060405180910390fd5b6000818152606660205260409020546001600160a01b038481169116146107075760405162461bcd60e51b8152600401808060200182810382526029815260200180610c226029913960400191505060405180910390fd5b6001600160a01b03821661074c5760405162461bcd60e51b8152600401808060200182810382526024815260200180610b856024913960400191505060405180910390fd5b600081815260666020908152604080832080546001600160a01b0319166001600160a01b03878116918217909255908716808552606790935281842080546000190190558084529083208054600101905583929091907f9ed053bb818ff08b8353cd46f78db1f0799f31c9e4458fdb425c10eccd2efc449084603281106107cf57fe5b600202016001015460ff1660038111156107e557fe5b60408051918252519081900360200190a4505050565b6000816032811061080857fe5b60020201805460019091015490915060ff1682565b6000818152606660205260408120546001600160a01b03166108705760405162461bcd60e51b815260040180806020018281038252602c815260200180610ba9602c913960400191505060405180910390fd5b6000828152606660205260409020546001600160a01b039081169084168114806108b35750836001600160a01b03166108a88461037e565b6001600160a01b0316145b949350505050565b604080514460208083019190915242828401524360608084019190915233901b60808301528251808303607401815260949092019092528051910120606490065b90565b6001600160a01b03811661095a576040805162461bcd60e51b815260206004820152601860248201527f4d696e7420746f20746865207a65726f20616464726573730000000000000000604482015290519081900360640190fd5b6032606454106109a3576040805162461bcd60e51b815260206004820152600f60248201526e105b1b081391951cc81b5a5b9d1959608a1b604482015290519081900360640190fd5b606480546001810190915560006109b8610b36565b905060405180604001604052808360010181526020018260038111156109da57fe5b9052600083603281106109e957fe5b600202016000820151816000015560208201518160010160006101000a81548160ff02191690836003811115610a1b57fe5b02179055509050508260666000808560328110610a3457fe5b600202015481526020808201929092526040908101600090812080546001600160a01b0319166001600160a01b03958616179055928616835260679091528120805460010190558260328110610a8657fe5b60020201546001600160a01b03841660007f9ed053bb818ff08b8353cd46f78db1f0799f31c9e4458fdb425c10eccd2efc448186603281106107cf57fe5b60006001600160a01b038216610b0b5760405162461bcd60e51b8152600401808060200182810382526021815260200180610bd56021913960400191505060405180910390fd5b506001600160a01b031660009081526067602052604090205490565b6065546001600160a01b031681565b600080610b416108bb565b90506032811015610b565760009150506108fc565b604b811015610b695760019150506108fc565b605c811015610b7c5760029150506108fc565b60039150509056fe4552433732313a207472616e7366657220746f20746865207a65726f20616464726573734552433732313a206f70657261746f7220717565727920666f72206e6f6e6578697374656e7420746f6b656e41646472657373207a65726f206973206e6f7420612076616c6964206f776e65724552433732313a20617070726f76656420717565727920666f72206e6f6e6578697374656e7420746f6b656e4552433732313a207472616e73666572206f6620746f6b656e2074686174206973206e6f74206f776e4552433732313a20617070726f76652063616c6c6572206973206e6f7420746865206f776e65724552433732313a207472616e736665722063616c6c6572206973206e6f74206f776e6572206e6f7220617070726f766564a265627a7a72315820f9b52b82c56d654a433fd3c474ba56148841d22a8741cb694e43557cc5e91e7864736f6c63430005100032",
  "source": "//SPDX-License-Identifier: MIT\r\npragma solidity >= 0.5.0 < 0.9.0;\r\n\r\ncontract NFT {\r\n\r\n    // Enums, Constants, Structs\r\n    enum Rarity { Common, Uncommon, Rare, UltraRare}\r\n    uint256 private constant Total_NFT = 50;\r\n    struct NFTData {\r\n        uint256 id;\r\n        Rarity rarity;\r\n    }\r\n\r\n    // State Variables\r\n    NFTData[Total_NFT] public nfts;\r\n    uint256 private mintCounter = 0;\r\n    address public contractOwner;\r\n\r\n    // Mappings\r\n    mapping(uint256 => address) private _owners;\r\n    mapping(address => uint256) private _balances;\r\n    mapping(uint256 => address) private _tokenApprovals; \r\n\r\n    // Events\r\n    event Transfer(address indexed from, address indexed to, uint256 indexed tokenId, uint256 tokenRarity);\r\n    event Approval(address indexed owner, address indexed approved, uint256 indexed tokenId);\r\n\r\n    constructor() public {contractOwner = msg.sender;}\r\n\r\n    // Mint a new NFT\r\n    function mint(address to) public payable {\r\n        require(to != address(0), \"Mint to the zero address\");\r\n        require(mintCounter < Total_NFT, \"All NFTs minted\");\r\n\r\n        uint256 nftIndex = mintCounter;\r\n        mintCounter++;\r\n        Rarity rarity = assignRarity();\r\n        nfts[nftIndex] = NFTData(nftIndex + 1, rarity);\r\n        _owners[nfts[nftIndex].id] = to;\r\n        _balances[to] += 1;\r\n\r\n        emit Transfer(address(0), to, nfts[nftIndex].id, uint256(nfts[nftIndex].rarity));\r\n    }\r\n\r\n    // Rarity assigned to the newly minted NFT\r\n    function assignRarity() internal view returns (Rarity) {\r\n        uint256 random = pseudoRandom();\r\n        if (random < 50) return Rarity.Common;\r\n        if (random < 75) return Rarity.Uncommon;\r\n        if (random < 92) return Rarity.Rare;\r\n        return Rarity.UltraRare;\r\n    }\r\n\r\n    // RNG for assigning rarity\r\n    // NOTE: In a real world environment, this would use Chainlink VRF\r\n    function pseudoRandom() public view returns (uint256) {\r\n        return uint256(keccak256(abi.encodePacked(block.difficulty, block.timestamp, block.number, msg.sender))) % 100;\r\n    }\r\n\r\n\r\n    // Transfer a token from one address to another\r\n    function transferFrom(address from, address to, uint256 tokenId) public {\r\n        require(isApprovedOrOwner(msg.sender, tokenId), \"ERC721: transfer caller is not owner nor approved\");\r\n        require(from == _owners[tokenId], \"ERC721: transfer of token that is not own\");\r\n        require(to != address(0), \"ERC721: transfer to the zero address\");\r\n\r\n        _owners[tokenId] = to;\r\n        _balances[from]--;\r\n        _balances[to]++;\r\n\r\n        emit Transfer(from, to, tokenId, uint256(nfts[tokenId].rarity));\r\n    }\r\n\r\n    // Approve an address to transfer a specific token\r\n    function approve(address to, uint256 tokenId) public {\r\n        address owner = _owners[tokenId];\r\n        require(owner == msg.sender, \"ERC721: approve caller is not the owner\");\r\n        _tokenApprovals[tokenId] = to;\r\n        emit Approval(owner, to, tokenId);\r\n    }\r\n\r\n    // Query an approved address for a specific token\r\n    function getApproved(uint256 tokenId) public view returns (address) {\r\n        require(_owners[tokenId] != address(0), \"ERC721: approved query for nonexistent token\");\r\n        return _tokenApprovals[tokenId];\r\n    }\r\n\r\n    // Check if an address is the owner or approved for a specific token\r\n    function isApprovedOrOwner(address spender, uint256 tokenId) public view returns (bool) {\r\n        require(_owners[tokenId] != address(0), \"ERC721: operator query for nonexistent token\");\r\n        address owner = _owners[tokenId];\r\n        return (spender == owner || getApproved(tokenId) == spender);\r\n    }\r\n\r\n    // See how many NFTs an address owns\r\n    function balanceOf(address owner) public view returns (uint256) {\r\n        require(owner != address(0), \"Address zero is not a valid owner\");\r\n        return _balances[owner];\r\n    }\r\n\r\n    // See the owner and rarity of an NFT\r\n    function getNFTData(uint256 tokenId) public view returns (uint256, Rarity, address) {\r\n        require(tokenId >= 1 && tokenId <= Total_NFT, \"NFTs are numbered from 1 to 50\");\r\n        NFTData storage nft = nfts[tokenId - 1];\r\n        address owner = _owners[nft.id];\r\n        return (nft.id, nft.rarity, owner);\r\n    }\r\n\r\n    // See all NFTs by rarity\r\n    function getNFTsByRarity(Rarity rarity) public view returns (uint256[] memory) {\r\n        uint256[] memory ids = new uint256[](Total_NFT);\r\n        uint256 count = 0;\r\n\r\n        for (uint256 i = 0; i < Total_NFT; i++) {\r\n            if (nfts[i].rarity == rarity) {\r\n                ids[count] = nfts[i].id;\r\n                count++;\r\n            }\r\n        }\r\n\r\n        // Resize the array to fit the actual number of found NFTs\r\n        uint256[] memory foundIds = new uint256[](count);\r\n        for (uint256 i = 0; i < count; i++) {\r\n            foundIds[i] = ids[i];\r\n        }\r\n        return foundIds;\r\n    }\r\n}",
  "sourcePath": "C:\\Users\\Gessay\\desktop\\token\\contracts\\nft.sol",
  "compiler": {
    "name": "solc",
    "version": "0.5.16+commit.9c3226ce.Emscripten.clang"
  },
  "schemaVersion": "3.4.16",
  "updatedAt": "2024-01-28T16:27:46.128Z",
  "networkType": "ethereum",
  "devdoc": {
    "methods": {}
  },
  "userdoc": {
    "methods": {}
  }
}